:030000000202F009
:0C02F000787FE4F6D8FD75812002000E36
:1001ED003F065B4F666D7D077F6F777C395E79715A
:1001FD000040761E7038375C733E783D6750376E21
:10020D00BF86DBCFE6EDFD87FFEF46010204081048
:10021D0020408000010200030000000400000000E7
:03022D00000000CE
:10023000E516C3940A400AE51675F00A84F50B80AA
:1002400003750B10E51675F00A8485F00CE513753F
:10025000F00A84F50DE51375F00A8485F00EC3E508
:0D0260001A94F4E51994014003430C202288
:1002BC000508E508C3943C4019E4F5080513E5135B
:1002CC00943C400EE4F5130516E51694184003E42F
:0302DC00F51622F2
:10000E00E4F593F594F591F592F595F596F5B1F530
:10001E00B2F5B3F5B4F5C9F5CAF5CBF5CCF5E1F506
:10002E00E2F51B758E80758CA9758A9AD2A9D28C31
:10003E00D2AF7F08780B7410F608DFFC7F087516B8
:10004E000CE4F513F508120230E4F515F509F51474
:10005E00F518F517F50A3000FDC200051AE51A70FD
:10006E00020519C394E8E5199403400BE4F519F55C
:10007E001A1202BC120230E51AB4F408E519B401E2
:10008E0003120230050AE50AC394324006E4F50A6B
:10009E00120126E515D3940040BCE51524EFFBE4D0
:1000AE0034FFFA7C007D0AAF03FE1201988F117C9B
:1000BE00007D0AAF03AE021201988D12E515B41140
:1000CE000F0516E516C394184003E4F51612023018
:1000DE00E515B4130F1516E516C3941840037516DF
:1000EE0017120230E515B41512E4F5080513E513E1
:1000FE00C3943C4003E4F513120230E515B4181214
:10010E00E4F5081513E513C3943C400375133B1235
:08011E000230E4F51502006453
:040003007F3CDFFE61
:0100070022D6
:10012600AE187580F0120003E58054F0F51875805E
:100136000F120003E580540F42186318FFEE65188E
:10014600704CAE14851814E5146040C2D5EE7004E8
:10015600D2D58012EEB5140E0517E517C3941440D8
:1001660005751712D2D530D525E514C4540F900263
:100176002093FE6019E514540F93FF6011EE25E0FD
:1001860025E0FEEF2E240CF5158003E4F5177580A7
:01019600FF69
:010197002245
:1002DF00E4FEEF25E0FF92C0D2C3C2C30EBE08F208
:0102EF0022EC
:10026D00E51B90021893F4FF1202DF740B251BF8A7
:10027D00E69001ED93FF1202DFD2CCC2CC051BE557
:0A028D001BC394084003E4F51B2294
:03000B0002029757
:10029700C0E0C083C082C0D075D000C000C006C017
:1002A7000712026DD200D007D006D000D0D0D0827E
:0502B700D083D0E0320D
:10019800BC000BBE0029EF8DF084FFADF022E4CC4B
:1001A800F875F008EF2FFFEE33FEEC33FCEE9DEC14
:1001B800984005FCEE9DFE0FD5F0E9E4CEFD22ED5A
:1001C800F8F5F0EE8420D21CFEADF075F008EF2FA4
:1001D800FFED33FD4007985006D5F0F222C398FD95
:0501E8000FD5F0EA2232
:00000001FF
