:0400030002080000EF
:03000B000200F3FD
:0D00F300C0E00509E50970020508D0E03203
:10009A00E4F591F592759704758ADC758C0B538E8D
:1000AA007F438F01F589D28CD2A9D2AFD3E50994C7
:1000BA0003E508648094804005E4F508F509E5083D
:1000CA0070EAE509146010146013146016240370B2
:1000DA00DBC2C6D29780D5C2C7D2C680CFC296D25B
:0900EA00C780C9C297D29680C3F9
:0300000002000EED
:0C000E00787FE4F6D8FD758109020055EA
:10001A0002009AE493A3F8E493A34003F68001F262
:10002A0008DFF48029E493A3F85407240CC8C333E7
:10003A00C4540F4420C8834004F456800146F6DFB6
:10004A00E4800B0102040810204080900003E47E43
:10005A00019360BCA3FF543F30E509541FFEE493AB
:10006A00A360010ECF54C025E060A840B8E493A372
:10007A00FAE493A3F8E493A3C8C582C8CAC583CA9D
:10008A00F0A3C8C582C8CAC583CADFE9DEE780BE55
:0100070000F8
:00000001FF
