:100168003F065B4F666D7D077F6F777C395E7971DF
:100178000040761E7038375C733E783D6750376EA6
:10018800BF86DBCFE6EDFD87FFEF460102040810CE
:0301980020408084
:10001600E4F593F594F591F592F595F596F5B1F528
:10002600B2F5B3F5B4F5C9F5CAF5CBF5CCF5E1F5FE
:10003600E2F515F51674082516F876100516E51678
:10004600B408F27510037511E8E4F514750C01F5A2
:100056000DF50EF50FD2AF7F011201D612019B05E9
:1000660013E51370020512C394F4E512940140E7F8
:10007600E4F512F513E511151170021510AE10AF67
:10008600117C037DE81201138F0CAE10AF117C03B7
:100096007DE81201137E007F64CFCDCFCECCCE1289
:1000A60001138F0DAE10AF117C007D641201137E1B
:1000B600007F0ACFCDCFCECCCE1201138F0EAE105D
:1000C600AF117C007D0A1201138D0F0514E514C3D0
:1000D60094034083E4F51420B20302005D20B303C9
:1000E60002005DF514C2C0F516D2C3C2C30516E5FB
:1000F60016B410F5D2CCC2CCC28BC289D2AAD2A871
:0D010600D288D28A43870200000002005D0B
:0F01D6007D337C07ED1D70011C144C70F7DFF1B9
:0101E50022F7
:030003000201E611
:0501E600C2A8C289322D
:030013000201EBFC
:0501EB00C2AAC28B3224
:1001C500E4FEEF25E0FF92C0D2C3C2C30EBE08F223
:0101D5002207
:10019B00E51590019393F4FF1201C574082515F82A
:1001AB00E690016893FF1201C5D2CCC2CC0515E5D0
:0A01BB0015C394084003E4F5152273
:03000000020006F5
:0C000600787FE4F6D8FD75811602001624
:10011300BC000BBE0029EF8DF084FFADF022E4CCD0
:10012300F875F008EF2FFFEE33FEEC33FCEE9DEC99
:10013300984005FCEE9DFE0FD5F0E9E4CEFD22EDDF
:10014300F8F5F0EE8420D21CFEADF075F008EF2F29
:10015300FFED33FD4007985006D5F0F222C398FD1A
:050163000FD5F0EA22B7
:00000001FF
