:1008CF003F065B4F666D7D077F6F777C395E797171
:1008DF000040761E7038375C733E783D6750376E38
:1008EF00BF86DBCFE6EDFD87FFEF46010204081060
:0308FF0020408016
:10080000E4F593F594F591F592F595F596F5B1F536
:10081000B2F5B3F5B4F5C9F5CAF5CBF5CCF5E1F50C
:10082000E2F514F515C3E515940874809480500B17
:1008300074082515F87610051580EAE4F510F5130F
:10084000F50DF50EF50FD2AF7F0112094A1209021C
:100850000512E51270020511C394E8E511940340F6
:10086000E7E4F511F5120510E51075F06484F50D57
:10087000E51075F06484E5F075F00A84F50EE51076
:1008800075F00A8485F00F0513C3E5139405748091
:10089000948040B4E4F51330B2AE30B3ABF513C27C
:1008A000C0F515C3E5159410748094805008D2C328
:1008B000C2C3051580EDD2CCC2CCC28BC289D2AAEC
:0F08C000D2A8D288D28A438702000000020848DB
:0F094A007D337C07ED1D70011C144C70F7DFF13D
:01095900227B
:0300030002096689
:05096600C2A8C28932A5
:0300130002096B74
:05096B00C2AAC28B329C
:10093000E4FEEEC3940874809480500DEF25E0FF30
:0909400092C0D2C3C2C30E80E9CB
:01094900228B
:10090200E5149008FA93F4FF12093074082514F8DC
:10091200E69008CF93FF120930D2CCC2CC0514C3A3
:0E092200E5149408748094804003E4F51422D8
:0300000002095A98
:0C095A00787FE4F6D8FD758115020800D6
:00000001FF
